*20561347868INDUAMERICA CHICLAYO SAC           220008000000000001303
610748192340                                   0000000000000000000000000000000007780000202207E0010000000128
620604663807                                   0000000000000000000000000000000001620000202208E0010000000495
610276962111                                   0000000000270023004898300000000000260027202208E0010000000154
620600840925                                   0000000000000000000000000000000003360000202208E0010000000376
